{
  "_format": "hh-sol-artifact-1",
  "contractName": "PizzaDelivery",
  "sourceName": "contracts/PizzaDelivery.sol",
  "abi": [
    {
      "inputs": [],
      "stateMutability": "nonpayable",
      "type": "constructor"
    },
    {
      "inputs": [],
      "name": "MinimumValue",
      "type": "error"
    },
    {
      "inputs": [],
      "name": "getTokenBalance",
      "outputs": [
        {
          "internalType": "uint256",
          "name": "",
          "type": "uint256"
        }
      ],
      "stateMutability": "view",
      "type": "function"
    },
    {
      "inputs": [],
      "name": "mintTokens",
      "outputs": [],
      "stateMutability": "payable",
      "type": "function"
    },
    {
      "inputs": [],
      "name": "owner",
      "outputs": [
        {
          "internalType": "address payable",
          "name": "",
          "type": "address"
        }
      ],
      "stateMutability": "view",
      "type": "function"
    },
    {
      "inputs": [
        {
          "internalType": "uint256",
          "name": "price",
          "type": "uint256"
        }
      ],
      "name": "purchaseCoffee",
      "outputs": [],
      "stateMutability": "nonpayable",
      "type": "function"
    },
    {
      "inputs": [
        {
          "internalType": "address",
          "name": "to",
          "type": "address"
        },
        {
          "internalType": "uint256",
          "name": "amount",
          "type": "uint256"
        }
      ],
      "name": "transferTokens",
      "outputs": [],
      "stateMutability": "nonpayable",
      "type": "function"
    }
  ],
  "bytecode": "0x608060405234801561001057600080fd5b50336000806101000a81548173ffffffffffffffffffffffffffffffffffffffff021916908373ffffffffffffffffffffffffffffffffffffffff16021790555061093c806100606000396000f3fe60806040526004361061004a5760003560e01c806382b2e2571461004f5780638da5cb5b1461007a578063bec3fa17146100a5578063ee3f3c00146100ce578063eeb9635c146100f7575b600080fd5b34801561005b57600080fd5b50610064610101565b60405161007191906105a2565b60405180910390f35b34801561008657600080fd5b5061008f610148565b60405161009c91906105fe565b60405180910390f35b3480156100b157600080fd5b506100cc60048036038101906100c79190610688565b61016c565b005b3480156100da57600080fd5b506100f560048036038101906100f091906106c8565b61029e565b005b6100ff610379565b005b6000600160003373ffffffffffffffffffffffffffffffffffffffff1673ffffffffffffffffffffffffffffffffffffffff16815260200190815260200160002054905090565b60008054906101000a900473ffffffffffffffffffffffffffffffffffffffff1681565b80600160003373ffffffffffffffffffffffffffffffffffffffff1673ffffffffffffffffffffffffffffffffffffffff1681526020019081526020016000205410156101ee576040517f08c379a00000000000000000000000000000000000000000000000000000000081526004016101e590610752565b60405180910390fd5b80600160003373ffffffffffffffffffffffffffffffffffffffff1673ffffffffffffffffffffffffffffffffffffffff168152602001908152602001600020600082825461023d91906107a1565b9250508190555080600160008473ffffffffffffffffffffffffffffffffffffffff1673ffffffffffffffffffffffffffffffffffffffff168152602001908152602001600020600082825461029391906107d5565b925050819055505050565b80600160003373ffffffffffffffffffffffffffffffffffffffff1673ffffffffffffffffffffffffffffffffffffffff168152602001908152602001600020541015610320576040517f08c379a000000000000000000000000000000000000000000000000000000000815260040161031790610752565b60405180910390fd5b80600160003373ffffffffffffffffffffffffffffffffffffffff1673ffffffffffffffffffffffffffffffffffffffff168152602001908152602001600020600082825461036f91906107a1565b9250508190555050565b60008054906101000a900473ffffffffffffffffffffffffffffffffffffffff1673ffffffffffffffffffffffffffffffffffffffff163373ffffffffffffffffffffffffffffffffffffffff1603610407576040517f08c379a00000000000000000000000000000000000000000000000000000000081526004016103fe90610855565b60405180910390fd5b6601c6bf52634000341015610448576040517fa2c48c2a00000000000000000000000000000000000000000000000000000000815260040160405180910390fd5b60006601c6bf526340003461045d91906108a4565b905060006601c6bf526340003461047491906108d5565b905060008054906101000a900473ffffffffffffffffffffffffffffffffffffffff1673ffffffffffffffffffffffffffffffffffffffff166108fc82346104bc91906107a1565b9081150290604051600060405180830381858888f193505050501580156104e7573d6000803e3d6000fd5b503373ffffffffffffffffffffffffffffffffffffffff166108fc829081150290604051600060405180830381858888f1935050505015801561052e573d6000803e3d6000fd5b5081600160003373ffffffffffffffffffffffffffffffffffffffff1673ffffffffffffffffffffffffffffffffffffffff168152602001908152602001600020600082825461057e91906107d5565b925050819055505050565b6000819050919050565b61059c81610589565b82525050565b60006020820190506105b76000830184610593565b92915050565b600073ffffffffffffffffffffffffffffffffffffffff82169050919050565b60006105e8826105bd565b9050919050565b6105f8816105dd565b82525050565b600060208201905061061360008301846105ef565b92915050565b600080fd5b6000610629826105bd565b9050919050565b6106398161061e565b811461064457600080fd5b50565b60008135905061065681610630565b92915050565b61066581610589565b811461067057600080fd5b50565b6000813590506106828161065c565b92915050565b6000806040838503121561069f5761069e610619565b5b60006106ad85828601610647565b92505060206106be85828601610673565b9150509250929050565b6000602082840312156106de576106dd610619565b5b60006106ec84828501610673565b91505092915050565b600082825260208201905092915050565b7f6163636f756e742062616c616e6365206973206c6f7700000000000000000000600082015250565b600061073c6016836106f5565b915061074782610706565b602082019050919050565b6000602082019050818103600083015261076b8161072f565b9050919050565b7f4e487b7100000000000000000000000000000000000000000000000000000000600052601160045260246000fd5b60006107ac82610589565b91506107b783610589565b92508282039050818111156107cf576107ce610772565b5b92915050565b60006107e082610589565b91506107eb83610589565b925082820190508082111561080357610802610772565b5b92915050565b7f63616e74206d696e7420746f6b656e7320666f7220746865206f776e65720000600082015250565b600061083f601e836106f5565b915061084a82610809565b602082019050919050565b6000602082019050818103600083015261086e81610832565b9050919050565b7f4e487b7100000000000000000000000000000000000000000000000000000000600052601260045260246000fd5b60006108af82610589565b91506108ba83610589565b9250826108ca576108c9610875565b5b828204905092915050565b60006108e082610589565b91506108eb83610589565b9250826108fb576108fa610875565b5b82820690509291505056fea26469706673582212201e290d6967386ca7192dcdb0756cb2ac7448719e073859c7b633bfdc88a086dc64736f6c63430008120033",
  "linkReferences": {},
  "deployedLinkReferences": {}
}